:020000040800F2
:10000000802D002001010008090100080B010008F3
:100010000D0100080F010008110100080000000098
:1000200000000000000000000000000013010008B4
:1000300015010008000000004701000829440008DD
:100040001B0100081B0100081B0100081B01000820
:100050001B0100081B0100081B0100081B01000810
:100060001B0100081B0100081B0100081B01000800
:100070001B010008FD110008051200081B01000803
:100080001B0100081B0100081B0100081B010008E0
:100090001B0100081B0100081B0100081B010008D0
:1000A0001B010008994400081B0100081B010008FF
:1000B000414500081B0100081B0100081B01000846
:1000C0001B0100081B0100081B0100081B010008A0
:1000D0001B010008095900081B0100081B0100084A
:1000E000851500081B0100081B010008DFF80CD073
:1000F00000F040FC0048004799670008802D002070
:100100000648804706480047FEE7FEE7FEE7FEE7B1
:10011000FEE7FEE7FEE7FEE7FEE7FEE739440008FC
:10012000ED00000890FAA0F0B0FA80F0704772B6C7
:10013000704762B67047EFF31081016072B6704786
:1001400080F31088704772B60E4800F1040100F188
:1001500008000B684FF001025A6002689A4207D00B
:10016000EFF30983203B83E8F00F93600B68036093
:100170009B6893E8F00F203383F309884EF0040E58
:1001800062B67047000600202DE9F05F05460020AA
:1001900092469B4688460646814640241BE02846F8
:1001A00041464746224600F0B0FA53465A46C01A26
:1001B000914110D311461846224600F097FA2D1AA5
:1001C00067EB01084F4622460120002100F08EFA1D
:1001D00017EB00094E41201EA4F10104DFDC484664
:1001E00031462A464346BDE8F09F0000004870476C
:1001F000487C000810B50446FFF7F8FF0068005D72
:1002000000F0010010BD40EA01039B0703D009E0A4
:1002100008C9121F08C0042AFAD203E011F8013BF2
:1002200000F8013B521EF9D27047D2B201E000F84B
:10023000012B491EFBD270470022F6E710B513468A
:100240000A4604461946FFF7F0FF204610BD10B5D8
:10025000044604E00B7800F8013B03B1491C521E30
:10026000F8D2204610BD421C10F8011B0029FBD11A
:10027000801A7047CBB203E00178994203D0401C4A
:10028000521EF9D20020704730B5044600200346C4
:1002900000E05B1C934203D2E05CCD5C401BF8D0D5
:1002A00030BD2DE9F04791460F46804604460026B2
:1002B00014F8015B2DB1FFF799FF0068405DC0079E
:1002C000F6D12B2D02D02D2D18D0641E4A4639466A
:1002D000204600F03CFA27B13968A14201D1C7F8A5
:1002E000008071054FF002040BD54042002803DD69
:1002F00005F02CFD0460A007BDE8F08746F4806699
:10030000E4E70028F8DA05F021FD04606FF0004012
:10031000F2E72DE9FE4F804681EA0300C00F0C464C
:10032000009021F0004123F00045B8EB0200A94104
:1003300005D24046214690461C460B46024623F015
:100340000040104347D0270DC7F30A00C3F30A51FA
:100350000290401A019040286BDAC3F3130040F476
:10036000801B0098924620B10023D2EB030A63EB76
:100370000B0B01985946C0F14002504600F0B6F907
:1003800006460D4650465946019A00F0CEF910EB4C
:1003900008006141002487EA115284EAE7731A4396
:1003A00040D0009A62B3019A012A4FEA075215DC45
:1003B000001B61EB02014FF0004202EA0752CDE957
:1003C0000042001C41F5801132462B4600F06BFACA
:1003D00003B0BDE8F08F40462146F9E7001B61EB12
:1003E0000201001C41F5801300185B412018A2F5A2
:1003F000001747EB030140EAD570B6196D4111E0D3
:100400006D084FEA360645EAC0754FEA0752001BF1
:1004100061EB0201001C41F5801149084FEA3000F0
:100420000019514132462B4603B0BDE8F04F00F0B1
:100430002BBA0098012240000023D0EB020263EBAC
:10044000E073009821464FEAE074B8EB000061EBDE
:100450000401E9E783F000435BE781F0004158E7DE
:100460002DE9FE4F81EA030404F0004421F000412D
:1004700000944FF0000B23F0004350EA01045ED0DB
:1004800052EA03045BD0C3F30A54C1F30A552C4467
:10049000A4F2F3340194A0FB0254C1F3130141F41C
:1004A0008011C3F3130343F4801301FB024400FBE8
:1004B000034E840A970A44EA815447EA8357A4FB0F
:1004C000076802958D0A05FB07854FEA932C04FB0C
:1004D0000C542705029D4FEA065847EA1637B5EB3C
:1004E00008056EEB070C870E920E47EA811742EA69
:1004F0008312A7FB0201B6EB0B0164EB00042B0D8A
:1005000043EA0C335E1844EB1C50DA465146E7FBD5
:100510000201C5F313044FEA0B3343EA14534FEAC5
:100520000432019C43EA0603A4F10C040294009CEB
:10053000CDE900B400F0B7F903B0BDE8F08F0020BA
:100540000146F9E72DE9F04D81EA030404F0004B80
:1005500021F0004514464FF0000A23F0004150EA14
:10056000050220D054EA01021DD0C5F30A57024605
:10057000C5F31303C1F31300C1F30A5640F4801509
:1005800043F48013A7EB0608101BD64608F2FD388B
:1005900073EB050002D308F1010801E092185B41FA
:1005A000B8F1000F03DA00200146BDE8F08D00200D
:1005B0004FF48011064684460EE0171B73EB0507C7
:1005C00005D3121B63EB050306434CEA010C4908F3
:1005D0004FEA300092185B4150EA0107EDD152EA30
:1005E000030012D082EA040083EA0501084305D023
:1005F000101BAB4106D20122002306E000224FF07F
:10060000004302E06FF0010253101AEB06004CEBBE
:10061000085110EB0A0041EB0B01BDE8F04D00F072
:1006200033B90EB5C10F80EAE0700844CA07002153
:1006300040F233438DE80E000A460B4600F033F9D2
:1006400003B000BD0EB540F2334102910021CDE967
:1006500000110A460B4600F026F903B000BDC1F3B5
:100660000A5210B5C1F3130140F2FF3341F4801177
:100670009A4201DA002010BD40F233439A42A2F2BE
:10068000334203DC524200F040F810BD904010BDF0
:1006900030B5041E71F1000404DB4FF00044404209
:1006A00064EB0101141E73F1000405DB1C464FF0DE
:1006B0000043524263EB0403994208BF904230BDAD
:1006C00030B50B46014600202022012409E021FA22
:1006D00002F59D4205D303FA02F5491B04FA02F51F
:1006E0002844151EA2F10102F1DC30BD202A04DBF2
:1006F000203A00FA02F1002070479140C2F1200335
:1007000020FA03F3194390407047202A04DB203A73
:1007100021FA02F00021704721FA02F3D040C2F121
:1007200020029140084319467047202A06DBCB1768
:10073000203A41FA02F043EAE07306E041FA02F39C
:10074000D040C2F1200291400843194670472DE97C
:10075000F05F82460078002715468B460AF10104B7
:10076000B946302801D09DB113E014F8010B0127E0
:10077000782803D0582801D045B10AE00DB1102DDA
:1007800007D10027102514F8010B02E0082500E02E
:100790000A250026B0460EE005FB080005FB06F121
:1007A000012701EB10461FFA80F8B6F5803F00D311
:1007B000B94614F8010B294600F0EEF80028EBDAF0
:1007C000BBF1000F05D00FB1641E00E05446CBF81A
:1007D0000040B9F1000F06D005F0B8FA022101601F
:1007E000C81EBDE8F09F48EA0640FAE70FB40023B0
:1007F00000B589B00CA900910B996FF00042CB6055
:100800001E4B06931E4B07930423CDE901321D4A6C
:10081000089202466B46002000F04CF909B05DF8E2
:1008200014FB70B586B006464FF0FF300091CDE95D
:100830000101002015460C4604903246694604A882
:10084000FFF7D4FF03460498211825B108B10A46E2
:1008500000E022462A6000280DD0002B02DD00981F
:10086000884208D0081B0094CDE90104324669464D
:1008700004A8FFF7BBFF06B070BD0000ED0C000838
:100880000B0D0008F501000810B5141E73F10004EB
:1008900008DA401C41F1000192185B411A4301D172
:1008A00020F0010010BD2DE9F04D92469B4611B19C
:1008B000B1FA81F202E0B0FA80F220329046FFF7FE
:1008C00015FF04460F4640EA0A0041EA0B01534671
:1008D0005A46084313D0114653EA010019D0C8F113
:1008E00040025046FFF711FF05460E465046594656
:1008F0004246FFF7FBFE084305D0012004E02046F6
:100900003946BDE8F08D0020054346EAE0762C43E9
:1009100037430A986305E40AA0EB08000022FD0AA9
:1009200044EA47540A3002D500200146E9E70105B0
:1009300010196941DDE9084500196941BDE8F04D2C
:10094000A2E7C1F30A52C1F3130140F2FF3341F4AD
:1009500080119A4202DA00200146704740F2334388
:100960009A42A2F2334202DC5242FFF7CEBEFFF7B8
:10097000BDBE0000064C074D06E0E06840F00103F4
:1009800094E8070098471034AC42F6D3FFF7B2FB67
:100990001C7D00083C7D00083A2800D2303820F049
:1009A0002002412A01D3A2F13700884201D34FF03F
:1009B000FF3070472DE9FF4F087881B09946FF2836
:1009C00005D0491C2D2804D00024002308E0002372
:1009D0000BE00124F9E703EB830300EB4303491C1D
:1009E0000878FF28F7D104B15B420020009014780A
:1009F00001462D2C01D02B2C04D1521C2D2C12D0B1
:100A00000024009400251678FF2E0ED00A24A0FBA7
:100A100004C801FB0481002700FB0711521C16EBE0
:100A20000C006941EFE70124EBE7994450EA010229
:100A30000ED00024AA4D2646DFF8A88200F076F9F1
:100A400082468B46B9F1000009DAC9F100071BE0C4
:100A500001980021C0E9001105B0BDE8F08F0746FC
:100A600012E0F80707D022462B4630464146FFF7F2
:100A7000F7FC0646884622462B4610461946FFF7E5
:100A8000EFFC04460D467F10002FEAD1B9F1000FAC
:100A9000324643465046594602DAFFF753FD01E01D
:100AA000FFF7DEFC009A0AB181F00041019AC2E929
:100AB0000001D1E72DE9FF4F1F468DB0D7E9014670
:100AC0004FF0FF382E2045464FF000090B90B969D2
:100AD0006D1C0E988847396A824688470028F6D1EF
:100AE000BAF1FF3F0AD024F4D064002E11DDBAF130
:100AF0002B0F08D0BAF12D0F0BD102E0404611B0F8
:100B0000ABE744F48064B9696D1C0E98884782464F
:100B1000761E6946600501D52D2000E02B208DF85A
:100B2000000001F1010B0DF1200809E0B9696D1C0D
:100B30000E98884782460F9844F40074761E05602C
:100B4000002E02DDBAF1300FF0D00B998A453ED16C
:100B500044F0800406E00F99681CA9F1010944F4EF
:100B600000740860B9696D1C761E0E98884782462D
:100B70003028F0D02BE00B998A4505D1200603D40C
:100B800044F08004761E18E0504605F0A5F908B33D
:100B90000DF11301761E44F400748B4508D2AAF1BE
:100BA00030000BF8010B200607D5A9F1010003E086
:100BB000200602D409F101008146A00502D50F9953
:100BC000681C0860B9696D1C0E9888478246002E23
:100BD000D1DC53E0002E51DDBAF1650F02D0BAF13D
:100BE000450F4BD1A00549D5B9696D1C24F440745B
:100BF000761E0E9888478246002E0CDD2B2804D0E6
:100C0000BAF12D0F07D144F48074B9696D1C0E98A8
:100C100088478246761EE00501D52D2100E02B2174
:100C200008F8011BCDF82C8021E00DF12901761E7A
:100C300044F4007488450CD2AAF1300010F0FF0093
:100C400088F8000002D10B99884509D908F10108FC
:100C500006E0E00501D5244801E042F20F7081462C
:100C6000B9696D1C0E98884782460F980560002E62
:100C700004DD504605F030F90028D6D1F9690E9808
:100C80008847FF208BF8000088F8000000200690BD
:100C900007904B466A4608A906A8FFF78BFEA005F9
:100CA00002D46FF001002AE714F0240F0AD0E00705
:100CB00014D1DDE906123868031D3B600068C0E905
:100CC00000120BE0DDE9060100F03CF80146E00708
:100CD00004D13868021D3A600068016028460EE7BA
:100CE000000024400000F03FF1D8FFFF426842B10D
:100CF000016811F8013B23B1521EC0E900121846E9
:100D000070470121C160881E704742685AB1C368AC
:100D1000016843B983688B4205D0491E521CC0E963
:100D20000012002070474FF0FF3070470EB540F2C0
:100D3000334202920022CDE900221346FFF7B3FDB1
:100D400003B000BD01F0004330B421F0004150EA8F
:100D5000010206D00A0DA2F56072C1F31301002A48
:100D600002DC30BC00207047440F44EAC104C100DB
:100D7000E01830BC00EBC250AFF300800029A8BFE0
:100D80007047401C490008BF20F00100704710B4B4
:100D9000B0FA80FC00FA0CF050EA010404BF10BC69
:100DA000704749B1CCF1200421FA04F411FA0CF196
:100DB00018BF012121430843A3EB0C01CB1D4FEACF
:100DC00000614FEA102042BF002010BC704700EBCA
:100DD000C35010440029A4BF10BC7047401C4900F8
:100DE00008BF20F0010010BC704770B58C1810F8D7
:100DF000015B15F0070301D110F8013B2A1106D160
:100E000010F8012B03E010F8016B01F8016B5B1E79
:100E1000F9D12B0705D40023521E0DD401F8013B54
:100E2000FAE710F8013BCB1A921C03E013F8015BC0
:100E300001F8015B521EF9D5A142D8D3002070BD44
:100E400070B505460C46002605EB8501064A02EB07
:100E5000C101086905F0B2FC2060206810B900BF2C
:100E6000304670BD0120FCE720000020F0B589B0BD
:100E7000002400F0ADF800BF50E0204600F008FD6F
:100E8000C5B208A8069004EB8400394901EBC00004
:100E9000C1698069CDE9040104EB8400344901EBA8
:100EA000C000406904EB8401314A02EBC1010969C9
:100EB00004EB84022E4B03EBC202D26804EB8406DF
:100EC0001F4607EBC606CDE900210290336A04EB0A
:100ED000840607EBC606726804EB840607EBC606B9
:100EE000B16804EB840657F8360004F069F805464B
:100EF00000BF012D05D021231E4A1FA122A000F012
:100F0000F7FD00BF00BF089828B12223194A1AA193
:100F10001DA000F0EDFD00BF601CC4B2082CACDBCE
:100F200000241EE004EB8401114A52F8310008A9A4
:100F300003F066FE054600BF012D05D029230D4AAA
:100F40000DA111A000F0D4FD00BF00BF089828B18A
:100F50002A23084A08A10CA000F0CAFD00BF601CAB
:100F6000C4B2082CDEDB09A004F03AFB09B0F0BDE6
:100F700020000020F37A00082E2E5C2E2E5C61707B
:100F8000705C6D61696E2E63000000006578616DB4
:100F9000706C65207374617274210D0A000000008A
:100FA00001468A78CB7842EA0320704710B502F0F8
:100FB000ACFA02F0B0FB02F0BBFB02F022FD02F043
:100FC00003FC02F09DFB02F087FC02F03BFC10BD2D
:100FD0000B480C4948600C490A48C1620B49C0F8EB
:100FE000A4100B4941650B49C1670B49C0F8CC10EF
:100FF0000A49C0F8F4100A49C0F81C1170470000F3
:101000000D31000820000020453300085932000847
:10101000CD320008AD34000881310008C933000822
:101020006534000838B504466A4621460C4803F08A
:101030005DFE00BF012D05D033230A4A0AA10FA08F
:1010400000F056FD00BF00BF009828B13423054AC8
:1010500005A10AA000F04CFD00BF012038BD000032
:10106000481300202D7B00082E2E5C2E2E5C617014
:10107000705C7061727365722E6300000000000086
:101080002DE9F14F82B0002001900298FFF7DAFAC3
:10109000804600220A4BFFF7E3F906460022094B7F
:1010A000FFF750FA04460022074BFFF7D9F98246B2
:1010B000FFF7D5FA80B201900198BDE8FE8F0000DD
:1010C0000000F03F0000594000408F4010B50B4831
:1010D000006858B90A48406A40F010000849486260
:1010E0003823084A08A110A000F002FD034908684F
:1010F000FFF718F80446204610BD000080060020C7
:1011000000060020137800082E2E5C2E2E5C6B65E6
:10111000726E656C5C7372635C74636C2E7468725F
:101120006561642E630000000000000010B50446F5
:101130006169A068884204D360690068B0F15A3FD1
:101140000FD00C48406A40F001000A494862206C08
:1011500040F0010020644D23074A08A10FA000F0D1
:10116000C7FC2169A068884203D2206C40F00200CD
:10117000206410BD00060020227800082E2E5C2E70
:101180002E5C6B65726E656C5C7372635C74636C11
:101190002E7468726561642E630000000000000018
:1011A0004369426852F823200A60C268521EC26036
:1011B0004269521C4261836842699A4201D100220D
:1011C0004261704730B502460B46002111E012F82B
:1011D000015B81EA0521002409E001F4004020B10F
:1011E00041F2210080EA410100E04900641C082C22
:1011F000F3DB581E031EEADA88B230BD10B500F0EA
:10120000D3FA10BD10B504F082FD10BD00200149D5
:10121000087070478A01002001200149087070475A
:101220008A01002000F0805111B10349086001E0FB
:101230000249486070470000040402400000024078
:1012400021B1026842F00102026004E002684FF638
:10125000FE731A400260704701684FF6FE7211403B
:1012600001600021016041608160C1604B4988429A
:1012700008D14A490839496841F00F01474A083AFC
:1012800051608AE045491431884208D14349083900
:10129000496841F0F001414A083A51607DE03F4918
:1012A0002831884208D13D490839496841F47061C4
:1012B0003A4A083A516070E038493C31884208D1D6
:1012C00036490839496841F47041344A083A516056
:1012D00063E032495031884208D1304908394968C1
:1012E00041F470212D4A083A516056E02B4964318F
:1012F000884208D129490839496841F47001274AD0
:10130000083A516049E025497831884208D123499B
:101310000839496841F07061204A083A51603CE060
:101320001F49884206D1011F096841F00F01021FC1
:10133000116032E01A491431884208D11849091F56
:10134000096841F0F001164A121F116025E01449A6
:101350002831884208D11249091F096841F4706197
:101360000F4A121F116018E00D493C31884208D124
:101370000B49091F096841F47041094A121F1160A5
:101380000BE007495031884207D10549091F096818
:1013900041F47021024A121F116070470800024098
:1013A0000804024001460020002201F0805313B1DE
:1013B000054B1A6801E0054B1A6802EA01030BB1FC
:1013C000012000E0002070470004024000000240BD
:1013D0001AB103680B43036002E003688B430360A8
:1013E000704710B50022026847F6F0739A430C6A02
:1013F0008B6823430C6923434C6923438C69234343
:10140000CC6923434C6A23438C6A23431A4302600A
:10141000CB6843600B6883604B68C36010BD0000FD
:1014200000B58DB00121084601F034FD1F48FFF7DB
:1014300013FF1F4802901F480390102004900A20B9
:1014400005900020069080200790002008900990C9
:101450000A904FF480500B9000200C9002A9134882
:10146000FFF7BFFF4FF4C06000F09AFA0E208DF82E
:10147000040001208DF8050000208DF806000120F1
:101480008DF8070001A800F053FA01220221074855
:10149000FFF79EFF01210548FFF7D2FE01228021C0
:1014A0000348001F04F01AFB0DB000BD44000240C9
:1014B00004380140AC1800202DE9F04104462078A2
:1014C00000F0020078B904F13C01294800F06CFEFC
:1014D000D4E90401C4E90C012648006AA06220682E
:1014E00040F00200206004F14C01606D00F0E2FE6B
:1014F000207800F0040080B3A06B401CA063D4E906
:101500000223D4E9041089185841C4E90410194889
:10151000D0E90620D4E90413511A984109D315489B
:10152000C06D1549884201D1144800E01248804638
:1015300002E01048D0F85C8020220023D4E9046146
:101540003046FEF721FE154608EB850004F14C01FC
:1015500000F02AFE0120207108E0FFE7012204F1DB
:101560004C01074800F0E0FD00202071BDE8F0814B
:101570001C00002000060020280A0020A80A0020E5
:101580001800002010B500F0FDFC282000F028FC19
:1015900000F00AFD10BD70472DE9F041024600251C
:1015A0000026002000230024002791F803C00CF03F
:1015B0000F0591F803C00CF0100CBCF1000F03D024
:1015C00091F802C04CEA050591F800C0BCF1000F8B
:1015D00031D0146800202BE04FF0010C0CFA00F31E
:1015E000B1F800C00CEA03069E4220D183004FF000
:1015F0000F0C0CFA03F7BC4305FA03FC4CEA040495
:1016000091F803C0BCF1280F06D14FF0010C0CFA81
:1016100000FCC2F814C00AE091F803C0BCF1480F06
:1016200005D14FF0010C0CFA00FCC2F810C0401CB0
:101630000828D1D31460B1F800C0BCF1FF0F34DD2D
:10164000546800202EE000F1080C4FF0010808FA61
:101650000CF3B1F800C00CEA03069E4221D18300CE
:101660004FF00F0C0CFA03F7BC4305FA03FC4CEAED
:10167000040491F803C0BCF1280F05D100F1080C57
:1016800008FA0CF8C2F8148091F803C0BCF1480FB6
:1016900007D100F1080C4FF0010808FA0CF8C2F865
:1016A0001080401C0828CED35460BDE8F081416111
:1016B000704701617047000010B5034805F0C5FF91
:1016C000024805F035FD10BD3015002098160020A9
:1016D0002DE9F041234B4FF480722349234805F054
:1016E000A3FA0020224908701E480022214BD0E9AD
:1016F00010613046FEF7B4FE0446FEF7B0FF1E4907
:101700000860184800221B4BD0E912613046FEF7F2
:10171000A7FE0446FEF7A3FF1749486011480022C0
:10172000144BD0E918613046FEF79AFE0446FEF7E6
:1017300096FF114988600B4800220E4BD0E91661D4
:101740003046FEF78DFE0446FEF789FF0A49086120
:10175000044890F870000873024890F874004873C9
:10176000BDE8F08130150020AC160020981600204E
:1017700075010020006AF8401815002008B54FF4E4
:10178000C06000F00DF90D208DF8000001208DF8EB
:10179000010000208DF8020001208DF8030068464A
:1017A00000F0C6F808BD000010B54FF48060FFF7E8
:1017B000F9FD30B10120094908708002FFF732FDC0
:1017C0000AE04FF40070FFF7EDFD28B10120044955
:1017D00008704002FFF726FD10BD000075010020D3
:1017E000740100202DE9F041234B4FF4807223490E
:1017F000234805F019FA0020224908701E480022EB
:10180000214BD0E910613046FEF72AFE0446FEF770
:1018100026FF1E490860184800221B4BD0E91261C0
:101820003046FEF71DFE0446FEF719FF17494860D3
:1018300011480022144BD0E918613046FEF710FE23
:101840000446FEF70CFF114988600B49D1E9166187
:1018500000220D4B3046FEF703FE0446FEF7FFFE66
:101860000A490861044890F870000873024890F82B
:1018700074004873BDE8F08130150020AC170020DB
:101880009816002074010020006AF8401815002006
:1018900070B50446002504EB8400104901EB4010AC
:1018A00004EB84010E4A42F8310004EB8400114637
:1018B00001EBC00004EB840102EBC101086204EB00
:1018C000840002EBC00000F10C012046FFF7B8FADB
:1018D00005460DB9002070BD0120FCE7C80D0020B1
:1018E0002000002008B51FE06846FEF724FC0F48E2
:1018F000006828B900F0CEFF0098FEF721FC13E045
:101900000A480068A0F11004A568E66804F1100117
:10191000A06900F0CFFC20212046FEF78DFC009846
:10192000FEF70EFC3046A847DEE70000140000205A
:1019300070B5002100230F22C47804B3154C24682D
:1019400004F4E064C4F5E064210AC1F10403CA4070
:10195000447804FA03F184781440214309010E4CC1
:101960000678A155047804F01F050124AC400578E1
:101970006D11AD0005F1E025C5F8004109E00478DE
:1019800004F01F050124AC40044D0678761145F89B
:10199000264070BD0CED00E000E400E080E100E0D6
:1019A00002490143024A1160704700000000FA0535
:1019B0000CED00E02DE9F04704460D4616464FF0C9
:1019C00001084FF00009606820B94FF000084FF09F
:1019D000040916E0D4E9010188420FD1606948B1D9
:1019E0006069A0F120072B4600220121384600F053
:1019F00069F906E06068401E606002E06068401EB1
:101A00006060C6F800904046BDE8F087F0B5044637
:101A1000059D88184FF08077061F30463760061FF7
:101A2000304633606FF00107061F304637604FF0D5
:101A30001237061F304637604FF00337061F304617
:101A400037604FF00237061F304637607F10061FA1
:101A500030463760061F304635605427061F304633
:101A600037605227061F304637604F27061F304623
:101A700037604327061F304637604827061F304629
:101A800037604927061F304637604C27061F30460F
:101A900037604927061F304637602060F0BD0000E0
:101AA0004FF00060014908607047000004ED00E05D
:101AB0004FF08050014908607047000004ED00E0DD
:101AC0004FF08050014908607047000004ED00E0CD
:101AD000FF2001490860704722ED00E00348411EE5
:101AE0004FF0E0225161072111617047E9260100A2
:101AF00004460D4616461F46FEF719FB0948C56207
:101B0000066347638462806C18B10648816C204686
:101B100088470448C06C10B10248C16C884700BFB8
:101B2000FEE70000000600202DE9FF5F04468B461B
:101B3000164610AF97E88007414885686868012815
:101B40000FD03F48406A40F001003D494862286C90
:101B500040F0080028642F233A4A3BA142A0FFF737
:101B6000C7FF287800F0200058B1002089F8000055
:101B70004FF48070CAF80000002114980170BDE88D
:101B8000FF9F2C66E561C4F800B066600398A06012
:101B90000E98E0600F982061C4F81490C4F818A063
:101BA0000021616200202062A16205F11800E0625C
:101BB0002349086F294600F047FD21490122C86EDC
:101BC000294600F003FD082068603068007800F0C6
:101BD000020028B104F12001301D00F0EBFB10E001
:101BE000207C00F0080030B1002204F12001301DFB
:101BF00000F0A8FB05E0012204F12001301D00F0F7
:101C0000A1FB66600F9800F0040070B1002187EA24
:101C1000010088EA0101084307D0C5E9127805F1FF
:101C200050010748743000F01FFA012089F80000C5
:101C30000020CAF8000001211498017000BF9EE73F
:101C400000060020DC7900082E2E5C2E2E5C6B65D1
:101C5000726E656C5C7372635C6970635C74636CF8
:101C60002E6970632E6300000000000070B504460A
:101C7000E5690020286630212046FEF7DDFA70BDB8
:101C80002DE9F04705460F4690461E46DDF82090A8
:101C900012E06868A0F120044B46424639462046CF
:101CA00000F010F8206900F0807028B1A06818B129
:101CB00016B13068A168086068680028E9D1BDE8FD
:101CC000F08700002DE9F04104460E46174698467D
:101CD000E5696868082839D13649C86E294600F098
:101CE000B3FC34488068A84208D132490022086F0A
:101CF000294600F06BFC0120686007E02D490122B5
:101D0000086F294600F062FC022068606168081DC7
:101D100004F1200100F094FB00206060606906700F
:101D2000A0690760207C00F0040028B105F1500193
:101D30002048743000F068FA1E49A86989688969EA
:101D4000884235D2012088F8000031E06868082810
:101D500001D1012000E0002040F02000C0B1616806
:101D6000081D04F1200100F06BFB00206060606939
:101D70000670A0690760207C00F0040028B105F11E
:101D800050010C48743000F03FFA202068600FE0EA
:101D90000848406A40F0010006494862286C40F05B
:101DA00008002864C623044A04A10CA0FFF7A0FE83
:101DB000BDE8F08100060020ED7900082E2E5C2E93
:101DC0002E5C6B65726E656C5C7372635C697063CC
:101DD0005C74636C2E6970632E6300000000000069
:101DE0002DE9F843054600BF2A2D05D33423194AAF
:101DF00019A120A0FFF77CFE00BF6846FEF79BF903
:101E00001D4850F82540FCB1207800F00100D8B101
:101E1000206840F002002060A06888B1A668E768EA
:101E20000098FEF78DF93846B04780466846FEF7C1
:101E300082F908F0010018B11049886E00F0A0FC8A
:101E4000206820F0020020600098FEF779F9BDE8D4
:101E5000F8830000847600082E2E5C2E2E5C6B65C5
:101E6000726E656C5C7372635C74636C2E69727104
:101E70002E63000000000000B802002000060020D1
:101E800000B589B01948007B30B140F26113184A9F
:101E900018A11FA0FFF72CFE1E48144908661E4813
:101EA0004866A8211B48FEF7C7F94FF480711A480D
:101EB000FEF7C2F91948002101600A210020CDE98E
:101EC000061001204102164A0023CDE90132CDE976
:101ED000031014482A23202213A10090144800F074
:101EE000E7FA13480149886609B000BD00060020E2
:101EF000CC7600082E2E5C2E2E5C6B65726E656CA7
:101F00005C7372635C74636C2E6972712E63000083
:101F100000000000B8020020B801002014000020DA
:101F200000040020E5180008495251440000000058
:101F3000600300202DE9F04104460D461646284670
:101F4000FEF791F90746082F01D9082000E038462E
:101F500007463A462946601DFEF779F9267108487A
:101F6000C06F20600648C06F401C0549C867012249
:101F700004F110010248783000F0D6F8BDE8F08195
:101F80000006002008B56846FEF7D5F80548006948
:101F9000401C04490861012008730098FEF7D0F83E
:101FA00008BD00000006002008B56846FEF7C3F82B
:101FB00000BF0F48006928B952230E4A0EA116A08F
:101FC000FFF796FD00BF0A480069401E08490861F6
:101FD0000846006938B90846006808B900F0F8FBFF
:101FE0000220034908730098FEF7AAF808BD000014
:101FF00000060020DC7600082E2E5C2E2E5C6B6521
:10200000726E656C5C7372635C74636C2E6B65726C
:102010006E656C2E630000000000000008B5684685
:10202000FEF789F80F48D0E90620521C40F1000065
:102030000C49C1E90620D1E9060100235840594066
:10204000084304D10748006A401C0649086200F0B2
:1020500043FC00F079FC00F061FD0098FEF770F899
:1020600008BD0000000600202DE9F04106460C46A0
:102070000025002700BFA06830B14FF49873204AB4
:1020800020A128A0FFF734FD00BF306820B93460DC
:1020900000206060206030E0356817E02F46E0687F
:1020A0000068E9680968884208D3E0680068E96860
:1020B0000968401AE16808606D6807E0E868006830
:1020C000E1680968401AE968086001E0002DE5D17F
:1020D00000BF75B1286828B934602C6000202060EA
:1020E00065600AE0286820606560286844602C60AC
:1020F00003E07C60276000206060A660BDE8F0819E
:10210000D67700082E2E5C2E2E5C6B65726E656C89
:102110005C7372635C74636C2E6F626A6563742EA9
:1021200063000000000000002DE9F04105460C4668
:10213000174600BFA06828B19223114A11A119A027
:10214000FFF7D6FC00BF286890B13FB928686060EF
:1021500000202060286804602C600DE02E6800E0FC
:10216000766870680028FBD160602660746003E0C8
:102170002C60002060602060A560BDE8F081000058
:10218000B17700082E2E5C2E2E5C6B65726E656C2E
:102190005C7372635C74636C2E6F626A6563742E29
:1021A000630000000000000030B50246002000235C
:1021B000146824B9116000244C600C6022E010689F
:1021C00009E00346CC682468C5682D68AC4201D399
:1021D000406800E001E00028F3D100BF70B104685E
:1021E0002CB91160016000240C6048600AE00468AA
:1021F0000C60486004686160016003E059600B6036
:1022000000244C608A6030BD70B505460C4600BFA6
:10221000A068A84206D04FF4BB731C4A1CA124A09E
:10222000FFF766FC00BF606820B9206810B9002085
:10223000286025E0606818B90020216848601FE028
:10224000206870B96068C0680068E168096808447F
:102250006168C9680860606828600020616808607B
:102260000EE06068C0680068E16809680844616859
:10227000C9680860D4E900010860D4E9001048602A
:10228000002020606060A06070BD0000EB77000857
:102290002E2E5C2E2E5C6B65726E656C5C737263A9
:1022A0005C74636C2E6F626A6563742E6300000059
:1022B0000000000070B505460C4600BFA068A842AB
:1022C00006D04FF48273154A15A11DA0FFF710FC2C
:1022D00000BF206820B9606810B90020286017E0AE
:1022E000206828B1606818B90020216848600FE0B4
:1022F000206838B9606828B10020616808606068AB
:10230000286005E0D4E900104860D4E900010860C5
:10231000002060602060A06070BD0000C2770008EF
:102320002E2E5C2E2E5C6B65726E656C5C73726318
:102330005C74636C2E6F626A6563742E63000000C8
:102340000000000070B505460C46164600BFA068A8
:1023500028B115230D4A0EA115A0FFF7C9FB00BF38
:10236000286868B128680068206020684460286890
:1023700060606068046036B928680068286002E020
:102380002C6024606460A56070BD00006C7700085C
:102390002E2E5C2E2E5C6B65726E656C5C737263A8
:1023A0005C74636C2E6F626A6563742E6300000058
:1023B0000000000070B505460C46002600BFA0686E
:1023C00028B13923144A15A11CA0FFF791FB00BFC7
:1023D0002868E0B12E68F0680068E1680968884202
:1023E00001D92C600BE0766800E07668F068006840
:1023F000E1680968884202D82868B042F5D130689F
:1024000020602068446066606068046002E02C60C0
:1024100024606460A56070BD827700082E2E5C2E5B
:102420002E5C6B65726E656C5C7372635C74636C5E
:102430002E6F626A6563742E630000000000000066
:1024400070B505460C4600BFA068A84205D06C23B5
:102450000D4A0EA115A0FFF74BFB00BF2068A0425C
:1024600002D1002028600AE0D4E900104860D4E9D5
:10247000000108602868A04201D16068286000203F
:1024800060602060A06070BD9C7700082E2E5C2EDE
:102490002E5C6B65726E656C5C7372635C74636CEE
:1024A0002E6F626A6563742E6300000000000000F6
:1024B0002DE9FF4F83B0044691469A46DDE9135B50
:1024C000DDE91678129E002204F17C000499FFF7E2
:1024D00031FD00BFFF2D06D84FF4CA732E4A2FA13D
:1024E00036A0FFF705FB00BF25F003057019E0607B
:1024F0000AF0080018B129463046FDF79DFE304B22
:102500002A46314604F108000094FFF77FFA5A206A
:1025100068436421B0FBF1F07119081A206166610B
:102520004FF05A303060C4E90878C4E90A780021D5
:1025300021636163C4F818B0C4F81CB01098A0639C
:102540001198E0630020A06604F14801E1650021D4
:1025500021656165A165A164E1642066606620640F
:1025600004F11800A0670020E06621676167B9F1F7
:10257000020F01D1134800E01348029001222146C6
:10258000029800F023F8C4F804904AF0010020609B
:1025900007B0BDE8F08F0000827800082E2E5C2E78
:1025A0002E5C6B65726E656C5C7372635C74636CDD
:1025B0002E7468726561642E6300000000000000E4
:1025C000B943000880060020040700202DE9F041EF
:1025D00005460C46904600BF2CB96E23104A11A147
:1025E00018A0FFF785FA00BF00BFA06E28B16F23C7
:1025F0000B4A0CA113A0FFF77BFA00BFA669281DA8
:1026000000EB8607424604F16C013846FFF79AFE5C
:10261000A5660121B140286808432860BDE8F08123
:10262000337800082E2E5C2E2E5C6B65726E656C06
:102630005C7372635C74636C2E7468726561642E83
:1026400063000000000000002DE9F04104460D4643
:1026500000BF2DB98D23134A13A11BA0FFF748FA21
:1026600000BF00BFA86EA04205D08E230D4A0EA168
:1026700015A0FFF73DFA00BFAE69201D00EB8607ED
:1026800005F16C013846FFF7DBFE0020A866201D2F
:1026900050F8260020B90121B1402068884320600D
:1026A000BDE8F081467800082E2E5C2E2E5C6B650E
:1026B000726E656C5C7372635C74636C2E746872AA
:1026C0006561642E630000000000000000B589B061
:1026D0001948007B30B140F2D923184A18A120A034
:1026E000FFF706FA84211F48FDF7A6FD84211E4846
:1026F000FDF7A2FD1B48104908671B48C8660A2160
:102700000020CDE906101F204FF40071174A002366
:10271000CDE90132CDE9031015483A23022215A173
:1027200000901648FFF7C4FE144803494865486006
:10273000886009B000BD000000060020A1780008F4
:102740002E2E5C2E2E5C6B65726E656C5C737263F4
:102750005C74636C2E7468726561642E63000000A3
:102760000000000080060020040700202808002048
:10277000593A0008524F4F54440000008807002087
:1027800010B50446207800F02000C8B16068202809
:1027900016D121460B48FFF757FF0B488068A0422F
:1027A00007D1002221460948FFF710FF0120606091
:1027B00006E0012221460548FFF708FF022060607D
:1027C00010BD000004070020000600208006002045
:1027D00010B5FEF77BFC0446202C06D34FF4A37300
:1027E000204A21A128A0FFF783F9284850F82400A7
:1027F00030B940F24B131B4A1BA123A0FFF778F915
:10280000224850F824006C38214948600846406846
:1028100030B94FF4A973134A13A11BA0FFF768F94D
:102820001B4840681A49896888420FD0184948688F
:10283000FEF77CFC164880684068012803D102201E
:10284000134989684860FFF733F90AE01048806847
:102850004068022803D101200D4989684860FFF7CC
:102860001FF910BD717800082E2E5C2E2E5C6B6552
:10287000726E656C5C7372635C74636C2E746872E8
:102880006561642E630000000000000084060020E3
:102890000006002010B50D488068007800F0200088
:1028A00098B10A48006880B9084881680848FFF76D
:1028B000CBFE0648012281680648FFF787FE2020EC
:1028C000024989684860FFF783FF10BD00060020B9
:1028D000800600200407002030B5194A9068D0E92E
:1028E0000C42641C42F10002C0E90C42D0E90832FB
:1028F0005B1E62F10002C0E908320024D0E9083210
:1029000063406240134319D1D0E90A23C0E9082388
:102910000C4A836952F82310A1F16C0282420DD156
:10292000074A126852B9074A836952F8232053684C
:10293000044A846942F824300222426030BD00001B
:10294000000600208406002038B5002000903A4898
:10295000406F00286ED03848406FA0F10805D5E9D7
:102960000020521E60F10000C5E900205AE0A5F1E8
:1029700048046068082832D0102804D028282FD0B6
:10298000302834D120E02C49C86E2146FFF75CFE88
:1029900029488068A04208D127490022086F2146B3
:1029A000FFF714FE0120606007E023490122086F51
:1029B0002146FFF70BFE0220606005F108011E486A
:1029C0007430FFF721FC24E0606820F010006060A4
:1029D00005F1080118487430FFF716FC19E000BF34
:1029E0006B4608220021206EFFF76CF911E01248B7
:1029F000406A40F0010010494862206C40F010002D
:102A0000206440F217130D4A0DA115A0FFF770F8CE
:102A100000BF00BF0848406F00B90AE00648406F99
:102A2000A0F108050023D5E90010594058400143A2
:102A30009DD000BF38BD0000000600205978000876
:102A40002E2E5C2E2E5C6B65726E656C5C737263F1
:102A50005C74636C2E7468726561642E63000000A0
:102A60000000000000B589B01948007B30B14FF478
:102A70000073184A18A11FA0FFF73AF800201E495A
:102A800008601E49086080211D48FDF7D5FB8021A4
:102A90001C48FDF7D1FB1A480D49C8650A210020E2
:102AA000CDE9061002200102174A0023CDE90132C8
:102AB000CDE9031015482A23202215A100901648BD
:102AC000FFF7F6FC14480249886509B000BD000014
:102AD00000060020CA7900082E2E5C2E2E5C6B6545
:102AE000726E656C5C7372635C74636C2E74696D7A
:102AF00065722E6300000000180000201C000020FA
:102B0000280A0020A80A0020280B002041560008AF
:102B1000544D524400000000280D00202DE9F047DC
:102B20001F49D1E90601002250405140084309D114
:102B30001B48C06D1B49884201D11B4800E0194861
:102B40001749C8651648D0F85CA00146D1E906715E
:102B5000202200233846FDF717FB16465AF8264078
:102B600012E0D4F80490A4F14C050D4BD5E9041003
:102B7000D3E9062351405840014304D12846FEF7CB
:102B80009BFC4C4600E001E0002CEAD100BF074866
:102B9000006818B10249886DFFF7F2FDBDE8F087C3
:102BA00000060020280A0020A80A00201C0000209F
:102BB000F8B505460C4600260020009005B9F8BD82
:102BC0006946284600F08FFA06460EB90020F6E75F
:102BD0000020216808709DF800002168087128799C
:102BE000112803D101212068417102E000212068F1
:102BF00041710120E3E7F8B505460C4600260020A8
:102C0000009005B9F8BD6946284600F06CFA064602
:102C10000EB9002000900020216808719DF8001076
:102C20002068C171287918B90021206841711AE023
:102C30002879012803D101212068417113E0287906
:102C4000022803D10221206841710CE02879032871
:102C500003D103212068417105E02879042802D1BD
:102C60000421206841710120CCE7F8B505460C46E7
:102C700000200090002605B9F8BD6946284600F0FE
:102C800032FA06460EB90020F6E7012021680870E6
:102C90009DF800002168087128790F2803D10121CF
:102CA0002068417102E00021206841710120E3E7C2
:102CB000F8B505460C4600200090002605B9F8BD81
:102CC0006946284600F00FFA06460EB90020F6E7DE
:102CD0009DF80000642801DD0020F0E70120216854
:102CE00008719DF800102068C17128790D2803D162
:102CF00000212068817105E028790E2802D1012188
:102D0000206881710120DAE7F8B504460D460026F7
:102D10000020009004B9F8BD6946204600F0E3F9B0
:102D200006460EB90020F6E72079052803D10020D9
:102D3000296808712FE02079062803D1012029682D
:102D4000087128E02079072803D10220296808713A
:102D500021E02079082803D10320296808711AE0AE
:102D60002079092803D104202968087113E020790B
:102D70000A2803D10520296808710CE020790B2866
:102D800003D106202968087105E020790C2802D1BA
:102D90000720296808710120BDE770B504460D467B
:102DA000204600F0ABFB08B9002070BD2079132845
:102DB00032D2DFE800F00A0B0C0D0E1314151617B3
:102DC00018191A1F2025262B2C0000BF00BF00BF9A
:102DD00000BF29462046FFF70EFF1FE000BF00BFDF
:102DE00000BF00BF00BF00BF00BF29462046FFF75D
:102DF0008BFF13E000BF29462046FFF759FF0DE087
:102E000000BF29462046FFF730FF07E000BF2946F4
:102E10002046FFF7CDFE01E00020C6E700BF0120FD
:102E2000C3E72DE9F04707468946154600240026EA
:102E3000A046E81D86B2304603F0C0FC044614B933
:102E40000020BDE8F087FF20207002206070A57090
:102E5000280AE07027712A464946601DFDF7D3F91C
:102E6000B11E2046FEF7AEF91FFA80F84FEA18208F
:102E7000A11901F8020CA11901F8018C3146204674
:102E800000F022FDC82003F051FC204603F05CFC5A
:102E90000120D6E729B1064A52690243044B5A6120
:102EA00004E0034A52698243014B5A6170470000B3
:102EB0000010024029B1064AD2690243044BDA618C
:102EC00004E0034AD2698243014BDA617047000093
:102ED0000010024029B1064A12690243044B1A61EC
:102EE00004E0034A12698243014B1A6170470000F3
:102EF0000010024029B1064A92690243044B9A61CC
:102F000004E0034A92698243014B9A6170470000D2
:102F10000010024029B1064AD2680243044BDA602D
:102F200004E0034AD2688243014BDA607047000034
:102F30000010024030B500210022002400232D4D56
:102F40006D6805F00C0121B1042905D0082923D1B1
:102F500005E0294D056022E0274D05601FE0254D65
:102F60006D6805F47012234D6D6805F480340225F8
:102F700005EB92421CB9214D554305600BE01D4DF8
:102F80006D6805F400351DB11C4D5543056002E028
:102F9000194D5543056002E0174D056000BF00BFA5
:102FA000144D6D6805F0F0010909154D6B5C05685D
:102FB000DD4045600F4D6D6805F4E061090A104D74
:102FC0006B5C4568DD4085600A4D6D6805F46051B5
:102FD000C90A0B4D6B5C4568DD40C560054D6D68E9
:102FE00005F44041890B074D6B5CC568B5FBF3F5F3
:102FF000056130BD0010024000127A0000093D005A
:1030000000000020100000202DE9F047044688460B
:1030100016461F464FF001094FF0000A207E20B9E6
:103020004FF0040A4FF000092CE0207E01281DD14A
:1030300041462046FEF7B4F8206A70B1206AA0F13C
:1030400020053346002201212846FEF73BFE20469C
:103050002A69A96800F0CCFF14E0D4E90410884282
:1030600001D1002000E0022020760BE041462046FE
:10307000FEF796F8D4E90410884201D1002000E060
:1030800002202076C7F800A04846BDE8F0872DE969
:10309000F04704460D4616464FF001084FF0000970
:1030A000D4E90101884204D14FF000084FF004092F
:1030B00014E0606878B9606948B16069A0F12007E0
:1030C0002B46002201213846FEF7FCFD06E0606831
:1030D000401C606002E06068401C6060C6F80090C0
:1030E0004046BDE8F08770B505460E4600242846E8
:1030F000FDF756FF04460CB9002070BD224630464D
:10310000A968FDF780F82046F7E70000F0B589B020
:103110000746002006900790089006A80590002416
:10312000002500260020049026E004A8002100913C
:103130000222CDE9011005A9104802F059F806460F
:103140000EB909B0F0BD0598007800B114E00598FB
:103150004479059805796DB9012C05D101220C211E
:10316000002000F09BFD06E000220C21104600F03C
:1031700095FD00E000BF00BFD7E700004813002026
:1031800030B589B00546002006900790089006A843
:1031900005900024002003904DE003A80021009139
:1031A0000222CDE9011004A9234802F021F80446C7
:1031B0000CB909B030BD04980078042800D03AE07A
:1031C00004980079002835D133E008A800F07CFA93
:1031D000ADF81C00BDF81C0000B92AE003A80021CE
:1031E00000910222CDE9011005A9144802F026F948
:1031F000044600BF012C05D02823114A11A115A0B7
:10320000FEF776FC00BF00BF039828B129230C4AC3
:103210000CA110A0FEF76CFC00BF03A800210091D8
:103220000A46CDE9011004A9034801F0E1FF044674
:1032300000BFCAE700BFB0E748130020CC1300204E
:10324000767B00082E2E5C2E2E5C6170705C6770A1
:10325000732E630000000000F0B589B0074600201F
:1032600006900790089006A80590002400250026E7
:103270000020049027E004A8002100910222CDE95B
:10328000011005A9104801F0B3FF06460EB909B0B8
:10329000F0BD05980078012800D014E00598447925
:1032A000059805796DB9012C05D101220B2100206B
:1032B00000F0F4FC06E000220B21104600F0EEFCCA
:1032C00000E000BF00BFD6E748130020F0B589B08A
:1032D0000746002006900790089006A80590002455
:1032E000002004902AE004A8002100910222CDE9E8
:1032F000011005A9124801F07BFF04460CB909B082
:10330000F0BD05980078022800D017E005980079F4
:1033100030B9059845790021284600F003F90CE002
:1033200005980079012808D1059885790598C6790E
:103330003146284600F010FB00BF00BFD3E7000075
:103340004813002088B00020079004900590069054
:1033500004A81349086021E007A800210091022277
:10336000CDE901100F4801680F4801F041FF044604
:10337000012C13D10A490B480068FFF70EFD0546E2
:1033800000BF012D05D02523084A09A10DA0FEF795
:10339000AFFB00BF0248FDF745FE0546DCE7000035
:1033A0006C0100207001002050140020147B0008E4
:1033B0002E2E5C2E2E5C6170705C70617273657273
:1033C0002E630000000000008AB0002006900790E5
:1033D0000890099006A8059000240020049000257C
:1033E0002EE0102206A9002000F0B4FD054600BF23
:1033F000012D05D00F23134A13A118A0FEF778FB67
:1034000000BF04A8002100910222CDE9011005A906
:10341000134802F013F8044600BF012C05D0132313
:10342000084A09A10DA0FEF763FB00BF00BF049886
:1034300028B11423034A04A108A0FEF759FB00BFDA
:10344000CFE70000467B00082E2E5C2E2E5C6170BC
:10345000705C72656365697665722E6300000000BA
:103460005014002030B585B005460020049000249B
:10347000039017E003A8002100910222CDE901107A
:1034800004A9094801F0B4FE04460CB905B030BDEA
:1034900004980078042805D1049882888168052062
:1034A000FFF7BFFCE6E70000CC130020F0B585B0C5
:1034B0000746002400250026002003901BE003A8F7
:1034C000002100910222CDE9011004A90A4801F06F
:1034D0008FFE06460EB905B0F0BD049800780328AB
:1034E00000D008E0049804790498457929462046DC
:1034F00000F04EFA00BFE2E748130020014648788A
:10350000012800D170470020FCE710B502230522F6
:103510000C21002000F0EEFA00220C21104600F0F1
:10352000BDFB10BD2DE9F04104460F46614800780F
:1035300010B96148007801E06048007805466048AD
:10354000007810B95C48007801E05E4800780646D3
:10355000052C7DD2DFE804F00324456689000221B2
:10356000002000F023FE0021084600F073FE022137
:10357000012000F01BFE0021012000F06BFE022163
:10358000084600F013FE0021022000F063FE022135
:10359000012000F00BFE0021032000F05BFE86E01E
:1035A0000021084600F002FE2946002000F052FEED
:1035B0000021012000F0FAFD3146012000F04AFE12
:1035C0000021022000F0F2FD2946022000F042FE18
:1035D0000021032000F0EAFD3146032000F03AFE0E
:1035E00065E00121002000F0E1FD2946002000F007
:1035F00031FE0121084600F0D9FD3146012000F0DE
:1036000029FE0121022000F0D1FD2946022000F010
:1036100021FE0121032000F0C9FD3146032000F006
:1036200019FE44E00121002000F0C0FD29460020E1
:1036300000F010FE0021012000F0B8FD314601200D
:1036400000F008FE0121022000F0B0FD294600E054
:103650002CE0022000F0FEFD0021032000F0A6FD7A
:103660003146032000F0F6FD21E00021084600F07D
:103670009DFD2946002000F0EDFD0121084600F0E7
:1036800095FD3146012000F0E5FD0021022000F00B
:103690008DFD2946022000F0DDFD0121032000F010
:1036A00085FD3146032000F0D5FD00E000BF00BFDE
:1036B000BDE8F0816201002064010020600100206B
:1036C000630100206101002070B50446002500F070
:1036D000FDF928B1FDF7FCFF0848206014250BE038
:1036E00000F0FEF928B1FEF77DF8044820601425AB
:1036F00002E0002020600025284670BD181500203B
:1037000010B54FF41650002102F0BEF800F012FC84
:10371000FDF7D2FF10BD10B5022305220B210020BA
:1037200000F0E8F900220B21104600F0B7FA10BDB6
:1037300010B5022305220621184600F0DBF902230A
:1037400005220721184600F0D5F902230522082199
:10375000184600F0CFF9022305220921184600F08F
:10376000C9F901220621022000F098FA012207215E
:10377000022000F093FA01220821022000F08EFAC4
:1037800001220921022000F089FA472144F6206035
:1037900000F0E0FE002244F62061012000F0F8FA7B
:1037A000002244F62061022000F0F2FA002244F6E2
:1037B0002061032000F0ECFA002244F6206104208E
:1037C00000F0E6FA10BD00003EB500240020029093
:1037D00002A8002110230E4ACDE900100DA11148C6
:1037E00001F0F2FA044600BF012C05D00E230E4A68
:1037F0000EA113A0FEF77CF900BF00BF029828B10C
:103800000F23094A09A10EA0FEF772F900BF3EBDC1
:1038100008130020496E7465724D7367496E5175C7
:103820006575650048130020017B00082E2E5C2E74
:103830002E5C6170705C7061727365722E63000043
:10384000000000003EB500240020029000F076FB4E
:1038500002A8002110230E4ACDE900100DA1124844
:1038600001F0B2FA044600BF012C05D023230F4A11
:103870000FA10CA0FEF73CF900BF00BF029828B1D1
:1038800024230A4A0AA107A0FEF732F900BF3EBD71
:103890001014002045787465726E496E4D7367513F
:1038A000756575650000000050140020617B0008FC
:1038B0002E2E5C2E2E5C6170705C7265636569767D
:1038C00065722E630000000070B504460D4629465F
:1038D000204600F019FB70BD3EB500240020029088
:1038E00002A8002110230E4ACDE900100DA11248B4
:1038F00001F06AFA044600BF012C05D024230F4AC8
:103900000FA114A0FEF7F4F800BF00BF029828B181
:1039100025230A4A0AA10FA0FEF7EAF800BF3EBD20
:103920008C130020496E7465726E4D73674F757409
:103930005175657565000000CC1300208C7B000874
:103940002E2E5C2E2E5C6170705C73656E646572E9
:103950002E6300000000000010B101280CD105E02A
:103960000122074B1A70074A117006E00122064B2C
:103970001A70064A117000E000BF00BF70470000D7
:10398000620100206001002063010020610100202D
:1039900070B504460D46002D01DBB42D01DD00207D
:1039A00070BD1CB9284600F0C1FC28E0012C03D1F1
:1039B000284600F0F3FC22E0022C03D1284600F058
:1039C000DFFC1CE0032C03D1284600F0A1FC16E02C
:1039D000042C03D1284600F08DFC10E0052C03D107
:1039E000284600F0BFFC0AE0062C03D1284600F070
:1039F000ABFC04E0072C02D1284600F06DFC00204F
:103A0000CEE710B5472144F6206000F01BFE4B22A4
:103A100044F62061052000F0FBF94B2244F62061BA
:103A2000062000F0F5F94B2244F62061072000F053
:103A3000EFF94B2244F62061082000F0E9F9472114
:103A400044F6206000F086FE4B2244F620610920F7
:103A500000F01CFA10BD0000FCF769FB02201049C1
:103A60000873012008600846006C30B940F2B223A8
:103A70000C4A0DA114A0FEF73BF80949086C8047D9
:103A8000002007490860FEF729F8FCF752FB05E023
:103A90000348406C10B10249486C8047F8E70000C9
:103AA00000060020917800082E2E5C2E2E5C6B659F
:103AB000726E656C5C7372635C74636C2E74687296
:103AC0006561642E63000000000000000348007878
:103AD00008B1012070470020FCE7000075010020BC
:103AE0000348007808B1012070470020FCE700007F
:103AF000740100202DE9F84F04460D4616461F4676
:103B0000DFF87C814FF001094FF0100A4FF0010BF4
:103B1000072C36D2DFE804F0040B121920272E0000
:103B200001210420FFF7E6F9DFF854812AE00121A2
:103B30000820FFF7DFF9DFF84C8123E00121102096
:103B4000FFF7D8F9DFF840811CE001212020FFF7C2
:103B5000D1F9DFF8388115E001214020FFF7CAF9DB
:103B6000DFF82C810EE001218020FFF7C3F9DFF898
:103B7000248107E001210802FFF7BCF9DFF8188172
:103B800000E000BF00BF102D39D2DFE805F0080BC0
:103B90000E1114171A1D202326292C2F32354FF011
:103BA00001092DE04FF002092AE04FF0040927E057
:103BB0004FF0080924E04FF0100921E04FF02009F0
:103BC0001EE04FF040091BE04FF0800918E04FF471
:103BD000807915E04FF4007912E04FF480690FE02E
:103BE0004FF400690CE04FF4805909E04FF400599C
:103BF00006E04FF4804903E04FF4004900E000BFC5
:103C000000BF082E1DD2DFE806F004070A0D1013CE
:103C100016194FF0000A15E04FF0040A12E04FF0B9
:103C2000280A0FE04FF0480A0CE04FF0140A09E0B0
:103C30004FF0100A06E04FF01C0A03E04FF0180A9C
:103C400000E000BF00BF27B1012F05D0022F09D12E
:103C500005E04FF0010B06E04FF0020B03E04FF0E0
:103C6000030B00E000BF00BFADF800908DF803A08B
:103C70008DF802B069464046FDF78EFCBDE8F88F2E
:103C800000080140000C01400010014000140140F8
:103C900000180140001C0140002001402DE9F041C6
:103CA00004460D461646334F4FF00108072C13D239
:103CB000DFE804F00406080A0C0E10002D4F0CE09B
:103CC0002D4F0AE02D4F08E02D4F06E02D4F04E068
:103CD0002D4F02E02D4F00E000BF00BF102D39D264
:103CE000DFE805F0080B0E1114171A1D20232629F2
:103CF0002C2F32354FF001082DE04FF002082AE05A
:103D00004FF0040827E04FF0080824E04FF01008B7
:103D100021E04FF020081EE04FF040081BE04FF07C
:103D2000800818E04FF4807815E04FF4007812E036
:103D30004FF480680FE04FF400680CE04FF48058B7
:103D400009E04FF4005806E04FF4804803E04FF4D8
:103D5000004800E000BF00BF012E04D141463846B4
:103D6000FDF7A7FC04E01EB941463846FDF79FFC6D
:103D7000BDE8F08100080140000C01400010014046
:103D80000014014000180140001C014000200140C7
:103D9000FEB505460C461646A0B2ADF80400472015
:103DA000ADF800000120ADF806000020ADF80200DB
:103DB00069464FF0804000F0D1FE4FF47A70B4FBBA
:103DC000F0F006FB104087B2012D06D0022D0AD07C
:103DD000032D0ED0042D18D111E039464FF080404C
:103DE00000F0B3FE12E039464FF0804000F0AFFE25
:103DF0000CE039464FF0804000F0ABFE06E039465B
:103E00004FF0804000F0A7FE00E000BF00BFFEBD05
:103E1000FEB505460C461646A0B2ADF80400472094
:103E2000ADF800000120ADF806000020ADF802005A
:103E30006946154800F092FE4FF47A70B4FBF0F03A
:103E400006FB104087B2052D06D0062D09D0072DA0
:103E50000CD0082D14D10EE039460B4800F075FE49
:103E60000FE03946084800F072FE0AE0394606487D
:103E700000F06FFE05E03946034800F06CFE00E0FC
:103E800000BF00BFFEBD000000040040FEB50546B7
:103E90000C461646A0B2ADF804004720ADF800006D
:103EA0000120ADF806000020ADF802006946154873
:103EB00000F054FE4FF47A70B4FBF0F006FB1040B3
:103EC00087B2012D06D0022D09D0032D0CD0042D70
:103ED00014D10EE039460B4800F037FE0FE03946AA
:103EE000084800F034FE0AE03946064800F031FE8A
:103EF00005E03946034800F02EFE00E000BF00BF99
:103F0000FEBD00000008004000B503460A46084810
:103F1000406C20F00100064948640846036582644D
:103F2000406C40F001004864FDF776F900BD0000E8
:103F30000000024010B501F06DFC10BD10B54FF44B
:103F40001650002101F0D8FBFDF76AFA01F028FCB9
:103F500010BD00002DE9FC5F82460F469346002508
:103F6000A9460026A846002001903C4601A8002250
:103F70001346022100901C4801F0D8F88046B8F1A1
:103F8000000F02D10020BDE8FC9F18488078174937
:103F9000C97840EA0126F01D85B2A91E1348FDF735
:103FA00011F91FFA80F9304602F008FCA0600F48B2
:103FB000007820700D48407860700C488078A070C0
:103FC0000A48C078E070094800792071A81E0749A6
:103FD000085C2073681E085C20703246491DA0688A
:103FE000FCF711F90120CEE7441900201019002038
:103FF00030B502F0080373B143691BB983685B1ED7
:10400000436102E043695B1E43610B684569446894
:1040100044F825300DE00B680569446844F8253004
:1040200003695B1C036184680369A34201D1002317
:104030000361C3685B1CC36030BD2DE9F05F0446BB
:104040000E4617469846DDF828904FF0010A4FF0CB
:10405000000B207E012804D14FF0040B4FF0000A22
:104060002BE0207EE0B9206A60B1206AA0F1200533
:104070004346002201212846FDF724FE3068A96846
:1040800008601AE03A4631462046FFF7B1FFD4E90E
:104090000410884201D1012000E0022020760CE0CB
:1040A0003A4631462046FFF7A3FFD4E90410884280
:1040B00001D1012000E002202076C9F800B050466E
:1040C000BDE8F09F10B500F001F810BD0CB5002060
:1040D000019000903348006840F480303149086016
:1040E00000BF3048006800F4003000900198401C88
:1040F0000190009818B90198B0F5A06FF1D1294846
:10410000006800F4003010B10120009001E00020B0
:1041100000900098012843D12348006840F0100027
:10412000214908600846006820F00300086008463E
:10413000006840F0020008601A4840681949486069
:104140000846406848600846406840F4806048601F
:104150000846406820F47C1048600846406840F4F7
:10416000E81048600846006840F08070086000BFB2
:104170000C48006800F000700028F9D00948406839
:1041800020F00300074948600846406840F00200FC
:10419000486000BF0348406800F00C000828F9D1CF
:1041A0000CBD0000001002400020024070B5054622
:1041B0000C4626480078A84204D125480078A04241
:1041C00000D170BD214805702148047035B1012D22
:1041D00011D0022D1CD0032D34D126E02CB90122A0
:1041E00009210220FFF75AFD04E0002209210220E4
:1041F000FFF754FD27E02CB9012208210220FFF728
:104200004DFD04E0002208210220FFF747FD1AE0DF
:104210002CB9012207210220FFF740FD04E0002213
:1042200007210220FFF73AFD0DE02CB901220621FB
:104230000220FFF733FD04E0002206210220FFF7F1
:104240002DFD00E000BF00BF00BFBAE76501002000
:104250006601002070B504460D4600261C48007813
:10426000A04204D11B480078A84200D170BD184874
:104270000470184805702846FCF702FF064634B162
:10428000012C0BD0022C10D0032C1CD114E0324690
:1042900044F620610120FFF77BFD15E0324644F62D
:1042A00020610220FFF774FD0EE0324644F62061E3
:1042B0000320FFF76DFD07E0324644F6206104203D
:1042C000FFF766FD00E000BF00BF00BFCEE70000C3
:1042D000670100206801002070B5044600252046D3
:1042E00002F006FA05462A4644F620610C20FFF744
:1042F0008FFD70BD70B504460025204602F0F8F928
:1043000005462A4644F620610920FFF781FD70BD6D
:1043100070B504460025204602F0EAF905462A4613
:1043200044F620610820FFF773FD70BD70B50446A8
:104330000025204602F0DCF905462A4644F62061B5
:104340000520FFF765FD70BD70B5044600252046C9
:1043500002F0CEF905462A4644F620610B20FFF70D
:1043600057FD70BD70B504460025204602F0C0F927
:1043700005462A4644F620610A20FFF749FD70BD34
:1043800070B504460025204602F0B2F905462A46DB
:1043900044F620610720FFF73BFD70BD70B5044671
:1043A0000025204602F0A4F905462A4644F620617D
:1043B0000620FFF72DFD70BD10B5044600BF0F4865
:1043C0008068A04205D021230D4A0EA115A0FDF75B
:1043D0008FFB00BFD4E90E1088470848406A40F0C0
:1043E000010006494862206C40F004002064262346
:1043F000034A04A10BA0FDF77BFB10BD00060020C3
:10440000037800082E2E5C2E2E5C6B65726E656C38
:104410005C7372635C74636C2E7468726561642E85
:10442000630000000000000010B5FDF7ABFDFDF7D4
:10443000F5FDFDF7B9FD10BD10B51348006840F05B
:1044400001001149086008464068104908400E49BB
:104450004860084600680E4908400B490860084655
:10446000006820F4802008600846406820F4FE00C0
:1044700048604FF41F008860FFF724FE4FF0006093
:104480000449086010BD0000001002400000FFF861
:10449000FFFFF6FE08ED00E010B50121214800F015
:1044A000DBF921480068401C1F4908600846006885
:1044B000B0F57A7F01D3002008601B48007800F037
:1044C000010010B90120194908701748006805213A
:1044D000B0FBF1F201FB120010B901201449087081
:1044E000114800680A21B0FBF1F201FB120010B97B
:1044F0000120104908700C4800683221B0FBF1F22D
:1045000001FB120010B901200B4908700648006831
:104510006421B0FBF1F201FB120010B90120074940
:10452000087010BD002C0140780100207C010020A3
:104530007D0100207E0100207F01002080010020FD
:1045400010B5FDF71FFD1C20FDF74AFCFDF72CFD03
:1045500010BD000030B589B005460C460121084663
:10456000FEF7A8FC01210420FEF7C4FC0F20ADF8E3
:10457000200018208DF8230003208DF8220008A9C0
:104580002F48FDF709F8ADF81850ADF81440012098
:10459000ADF81A000020ADF8160005A94FF08040D4
:1045A00000F0DCFA7020ADF804000120ADF8060040
:1045B0000020ADF80A00ADF80C0001A94FF08040D2
:1045C00000F068F901A94FF0804000F0B9F901A9A5
:1045D0004FF0804000F014FA01A94FF0804000F045
:1045E00069FA0121880700F046F90821C80600F0A1
:1045F0009DF90821C80600F0F5F90821C80600F069
:104600004FFA0821C80600F093FA0121880700F04C
:1046100017F96421080700F098FA6421080700F0F0
:1046200096FA6421080700F094FA6421080700F064
:1046300092FA0121880700F012F909B030BD00009C
:104640000008014030B589B005460C460121022022
:10465000FEF730FC01210820FEF74CFC012104206C
:10466000FEF748FCC020ADF8200018208DF823008C
:1046700003208DF8220008A93348FCF78DFF0320A2
:10468000ADF8200018208DF8230003208DF82200BB
:1046900008A92E48FCF780FFADF81850ADF814407B
:1046A0000120ADF81A000020ADF8160005A9284831
:1046B00000F054FA7020ADF804000120ADF80600B7
:1046C0000020ADF80A00ADF80C0001A9204800F068
:1046D000E1F801A91E4800F033F901A91C4800F0D7
:1046E0008FF901A91A4800F0E5F90121184800F0F6
:1046F000C2F80821164800F019F90821144800F002
:1047000071F90821124800F0CBF90821104800F097
:104710000FFA01210E4800F093F864210C4800F0D4
:1047200014FA64210A4800F012FA6421084800F0E3
:1047300010FA6421064800F00EFA0121044800F046
:104740008EF809B030BD000000080140000C0140A7
:104750000004004030B589B005460C460121042014
:10476000FEF7A8FB01210820FEF7C4FB4FF4707090
:10477000ADF8200018208DF8230003208DF82200CA
:1047800008A92D48FCF708FFADF81850ADF8144003
:104790000120ADF81A000020ADF8160005A9274841
:1047A00000F0DCF97020ADF804000120ADF806003F
:1047B0000020ADF80A00ADF80C0001A91F4800F078
:1047C00069F801A91D4800F0BBF801A91B4800F0D9
:1047D00017F901A9194800F06DF90121174800F0F7
:1047E0004AF80821154800F0A1F80821134800F004
:1047F000F9F80821114800F053F908210F4800F09A
:1048000097F901210D4800F01BF864210B4800F0D6
:104810009CF96421094800F09AF96421074800F0E6
:1048200098F96421054800F096F90121034800F049
:1048300016F809B030BD0000000C0140000800402F
:1048400021B1028842F08002028004E002884FF623
:104850007F731A4002807047CA430282704721B1B9
:10486000028842F00102028004E002884FF6FE73E3
:104870001A400280704731B1B0F8442042F400423F
:10488000A0F8442005E0B0F84420C2F30E02A0F8DE
:104890004420704770B5002400220023058C4FF699
:1048A000FE7635400584028C8388048B4FF68F7525
:1048B0002C40B51E2C400D882C43751E2A400D89B6
:1048C0002A434D882A43144DA8420BD0134DA842C9
:1048D00008D0134DA84205D0124DA84202D0124D67
:1048E000A84213D14FF6F7752A404D892A434FF657
:1048F000FB752A408D882A434FF6FF652B404FF603
:10490000FF552B408D892B43CD892B438380048316
:10491000CD888586028470BD002C014000340140A2
:104920000040014000440140004801400A46002187
:10493000018B4FF6F7731940114301837047000054
:1049400070B5002400220023058C4FF6EF76354029
:104950000584028C8388048B48F6FF752C404FF643
:10496000FF452C400D884FF6FF7606EA05252C43BF
:104970004FF6DF752A400D8906EA05152A434D8852
:1049800006EA05152A43154DA84202D0144DA84247
:104990001DD14FF67F752A404D894FF6FF7606EA06
:1049A00005152A434FF6BF752A408D8806EA05157E
:1049B0002A434FF6FF352B404FF2FF752B408D8970
:1049C00006EA85052B43CD8906EA85052B438380BE
:1049D0000483CD880587028470BD0000002C01404F
:1049E000003401400A460021018B4FF2FF73194049
:1049F0004FF6FF7303EA0223194301837047000057
:104A000070B5002400220023058C4FF6FF66354068
:104A10000584028C8388848B4FF68F752C404FF66B
:104A2000FC752C400D882C434FF6FF552A400D890C
:104A30004FF6FF7606EA05252A434D8806EA052546
:104A40002A43154DA84202D0144DA8421DD14FF261
:104A5000FF752A404D894FF6FF7606EA05252A4361
:104A60004FF6FF352A408D8806EA05252A434EF683
:104A7000FF752B404DF6FF752B408D8906EA051515
:104A80002B43CD8906EA05152B4383808483CD888B
:104A90008587028470BD0000002C01400034014075
:104AA0000A460021818B4FF6F77319401143818329
:104AB0007047000070B5002200230024058C4EF6DC
:104AC000FF7635400584038C8488828B48F6FF7519
:104AD0002A404FF6FF452A400D884FF6FF7606EA3A
:104AE00005252A434DF6FF752B400D8906EA05354D
:104AF0002B434D8806EA05352B430B4DA84202D0C7
:104B00000A4DA84208D14BF6FF752C408D894FF60F
:104B1000FF7606EA85152C4384808283CD88A0F831
:104B20004050038470BD0000002C0140003401405F
:104B30000A460021818B4FF2FF7319404FF6FF7335
:104B400003EA0223194381837047818670470187F6
:104B5000704781877047A0F8401070470022028894
:104B60001D4B98420ED01D4B98420BD0B0F1804F98
:104B700008D01B4B984205D01A4B984202D01A4BD2
:104B8000984204D14FF68F731A404B881A43174B43
:104B9000984207D0164B984204D04FF6FF431A4074
:104BA000CB881A4302808B8883850B8803850A4B48
:104BB00098420BD0094B984208D00E4B984205D032
:104BC0000D4B984202D00D4B984201D10B7A0386CF
:104BD0000123838270470000002C01400034014013
:104BE0000004004000080040000C0040001000409D
:104BF00000140040004001400044014000480140D2
:104C0000F8B504460D4600BF34B940F2CA432A4AFB
:104C10002AA132A0FCF76CFF00BF00BF35B940F2FB
:104C2000CB43254A25A12DA0FCF762FF00BF6846B3
:104C3000FBF781FA2A48007B022806D00098FBF790
:104C40007FFA402028600020F8BD207800F00100A5
:104C500030B90098FBF774FA012028600020F3E7D0
:104C6000207800F0200030B10098FBF769FA0220AC
:104C700028600020E8E76068042817D12146194819
:104C8000FDF7E2FC012221461748FDF79FFC0220B8
:104C900060601348006838B91149A069896889695A
:104CA000884201D2FDF794FD012600270098FBF70A
:104CB00047FA2F603046C7E71E7900082E2E5C2E7B
:104CC0002E5C6B65726E656C5C7372635C74636C96
:104CD0002E7468726561642E63000000000000009D
:104CE0000006002004070020800600202DE9FE4376
:104CF00004460D46164600274FF00208002001909A
:104D000000BF34B940F28223234A24A12CA0FCF72F
:104D1000EFFE00BF00BF35B940F283231E4A1FA13A
:104D200027A0FCF7E5FE00BF00BF36B94FF42173A2
:104D3000194A1AA122A0FCF7DBFE00BF02A8FBF76C
:104D4000FAF9207800F00100E8B1207EC8B901A886
:104D50002B4600220121009004F11C00FCF790FF7B
:104D60001848007B022808D11648006828B99DF829
:104D70000400012801D1FDF72BFD4FF000080127A9
:104D800001E04FF004080298FBF7DAF9C6F800805A
:104D90003846BDE8FE8300006A7A00082E2E5C2E9D
:104DA0002E5C6B65726E656C5C7372635C697063BC
:104DB0005C74636C2E6D6573736167652E630000B0
:104DC00000000000000600202DE9F84F0446884648
:104DD00015461E46DDE90A794FF0000A4FF0010B37
:104DE00000BF34B94FF4D9732C4A2DA135A0FCF77C
:104DF0007FFE00BF00BFB8F1000F06D140F2B31331
:104E0000264A27A12FA0FCF773FE00BF00BF35B9CB
:104E10004FF4DA73214A22A12AA0FCF769FE00BFF1
:104E200000BF36B940F2B5131C4A1DA125A0FCF7FE
:104E30005FFE00BF00BFB9F1000F06D14FF4DB7376
:104E4000164A17A11FA0FCF753FE00BF07F0020788
:104E50006846FBF770F9207800F00100A8B9052238
:104E6000414604F12400FDF765F847F0010727608B
:104E7000A66065600020E06020616061207600210E
:104E80002162E46183464FF0010A0098FBF758F96C
:104E9000C9F800B05046BDE8F88F0000247A000839
:104EA0002E2E5C2E2E5C6B65726E656C5C7372636D
:104EB0005C6970635C74636C2E6D657373616765A8
:104EC0002E630000000000002DE9F84F04468846DC
:104ED00015461E46DDE90A794FF0000A4FF0010B36
:104EE00000BF34B94FF49F732A4A2BA133A0FCF7BB
:104EF000FFFD00BF00BFB8F1000F06D140F23F1325
:104F0000244A25A12DA0FCF7F3FD00BF00BF36B950
:104F10004FF4A0731F4A20A128A0FCF7E9FD00BFB1
:104F200000BFAE4206D240F241131A4A1AA123A092
:104F3000FCF7DEFD00BF00BFB9F1000F06D14FF452
:104F4000A173144A14A11DA0FCF7D2FD00BF07F005
:104F500002076846FBF7EFF8207800F0010088B9F7
:104F60000222414604F11800FCF7E4FF47F0010774
:104F700027606560A660E5600021616124618B4661
:104F80004FF0010A0098FBF7DBF8C9F800B0504673
:104F9000BDE8F88FA97A00082E2E5C2E2E5C6B657A
:104FA000726E656C5C7372635C6970635C74636C75
:104FB0002E73656D6170686F72652E63000000006E
:104FC0002DE9FF4F89B006468A461746DDF858B0EE
:104FD000DDE91B59DDF860801A9C00BF36B94FF43B
:104FE0004373474A47A14FA0FCF782FD00BF00BFB3
:104FF000BAF1000F06D140F20D33414A41A149A058
:10500000FCF776FD00BF00BF37B940F20E333C4AD3
:105010003CA144A0FCF76CFD00BF00BFBBF1000F3A
:1050200006D140F20F33364A36A13EA0FCF760FDB0
:1050300000BF00BF179830B94FF44473304A31A114
:1050400038A0FCF755FD00BF00BFB8F11D0F06D911
:1050500040F211332A4A2BA132A0FCF749FD00BFD0
:1050600000BFB8F1030F06D240F21233244A25A143
:105070002CA0FCF73DFD00BF00BF002184EA010029
:105080006940084306D140F213331D4A1DA125A0F3
:10509000FCF72EFD00BF08A8FBF74DF82248007B67
:1050A000022809D00898FBF74BF84020C9F8000007
:1050B00000200DB0BDE8F08F307800F0010038B16D
:1050C0000898FBF73DF80120C9F800000020F0E740
:1050D000CDE906450C99179804231A46CDE9011B22
:1050E000CDE90308009751463046FDF7E1F90898ED
:1050F000FBF726F80020C9F800000120D9E70000DE
:10510000B47800082E2E5C2E2E5C6B65726E656C7A
:105110005C7372635C74636C2E7468726561642E78
:105120006300000000000000000600202DE9F041AF
:1051300098B004460D4616461F46DDF878800020DC
:105140001790022016900020099008A8FAF7F3FFA4
:10515000207800F0010000283DD016AA09A92046B9
:10516000FCF728FC17902148007B022833D11F4808
:10517000006880BB9DF85C00012806D19DF82400E2
:10518000012828D1FDF724FB25E005F0020010B32B
:1051900009A816A917AACDE90267CDE9042106904E
:1051A00045F4803000210B4604F11002CDE90010D7
:1051B00021460AA8FCF7B8FC9DF8240001280AD172
:1051C000FDF706FB0898FAF7BBFF08A8FAF7B3FF4C
:1051D0000AA8FCF74BFD0898FAF7B2FF1698C8F832
:1051E00000009DF85C0018B0BDE8F08100060020CA
:1051F0002DE9F04397B004460E461546DDE91F89B8
:105200001E9F00201690022015900020089000BFDD
:105210002CB9E723364A37A13FA0FCF769FC00BF51
:1052200000BF2EB9E823324A32A13BA0FCF760FC54
:1052300000BF00BFB9F1000F05D1E9232C4A2DA111
:1052400035A0FCF755FC00BF05F00E0507A8FAF7DE
:1052500072FF207800F0010000283ED015AB08AAAC
:1052600031462046FDF7D0FE16902C48007B0228E0
:1052700033D12A48006880BB9DF85800012806D128
:105280009DF82000012828D1FDF7A2FA25E005F0BD
:10529000020010B308A815A916AACDE90278CDE935
:1052A0000421069045F084700421334604F11C0269
:1052B000CDE90010214609A8FCF736FC9DF8200036
:1052C00001280AD1FDF784FA0798FAF739FF07A8F1
:1052D000FAF731FF09A8FCF7C9FC0798FAF730FF85
:1052E0001598C9F800009DF8580017B0BDE8F08384
:1052F000007A00082E2E5C2E2E5C6B65726E656C3B
:105300005C7372635C6970635C74636C2E6D65734F
:10531000736167652E630000000000000006002036
:105320002DE9F04198B004460D4616461F46DDF8BB
:10533000788000201790022016900020099000BF6E
:105340002CB9CD23314A32A13AA0FCF7D1FB00BFE2
:1053500000BFB8F1000F05D1CE232C4A2CA135A0F7
:10536000FCF7C6FB00BF08A8FAF7E5FE207800F0BE
:10537000010000283FD016AA09A92046FDF787FEA4
:1053800017902D48007B022835D12B48006890BB30
:105390009DF85C00012806D19DF8240001282AD13F
:1053A000FDF716FA27E005F0060505F0020010B338
:1053B00009A816A917AACDE90267CDE9042106902C
:1053C00045F4803000210B4604F11002CDE90010B5
:1053D00021460AA8FCF7A8FB9DF8240001280AD161
:1053E000FDF7F6F90898FAF7ABFE08A8FAF7A3FE5E
:1053F0000AA8FCF73BFC0898FAF7A2FE1698C8F832
:1054000000009DF85C0018B0BDE8F0817E7A0008CD
:105410002E2E5C2E2E5C6B65726E656C5C737263F7
:105420005C6970635C74636C2E73656D6170686F2A
:1054300072652E6300000000000600202DE9F04395
:1054400097B004460E461546DDE91F891E9F0020D1
:105450001690022015900020089007A8FAF76BFE1E
:10546000207800F00100002840D015A808AB2A469B
:10547000314600902046FEF7E0FD16902148007B63
:10548000022833D11F48006880BB9DF858000128CE
:1054900006D19DF82000012828D1FDF799F925E0D3
:1054A00005F0020010B308A815A916AACDE90278E4
:1054B000CDE90421069045F002700421334604F141
:1054C0001C02CDE90010214609A8FCF72DFB9DF830
:1054D000200001280AD1FDF77BF90798FAF730FE82
:1054E00007A8FAF728FE09A8FCF7C0FB0798FAF707
:1054F00027FE1598C9F800009DF8580017B0BDE8C0
:10550000F0830000000600202DE9F04104460D461E
:1055100016461F4600BF34B94FF49D73254A26A195
:105520002DA0FCF7E5FA00BF00BF35B940F23B13F0
:10553000204A21A128A0FCF7DBFA00BF00BF36B942
:105540004FF49E731B4A1CA123A0FCF7D1FA00BFA5
:1055500000BF37B940F23D13164A17A11EA0FCF751
:10556000C7FA00BFFAF7E3FD80211C48FAF764FE92
:105570001A480464C563866387640020174908607D
:105580000873FDF7A3F8FDF76DFAFCF779FC1349F2
:10559000C86B80471149886B8047FCF791FAFAF78E
:1055A000C8FD40F26713034A03A10BA0FCF7A0FA61
:1055B000BDE8F0815D7700082E2E5C2E2E5C6B65B9
:1055C000726E656C5C7372635C74636C2E6B657277
:1055D0006E656C2E630000000000000000060020D5
:1055E00038B5044600BF2CB992230A4A0AA112A07A
:1055F000FCF77EFA00BF6846FAF79DFD0F48806C05
:1056000018B10E48816C204688470098FAF798FD3B
:1056100038BD0000F37600082E2E5C2E2E5C6B65E4
:10562000726E656C5C7372635C74636C2E6B657216
:105630006E656C2E63000000000000000006002074
:1056400008B554E06846FAF776FD2948006828B99D
:10565000FDF720F90098FAF773FD48E02448006848
:10566000A0F13C0404F13C01606CFCF723FE2068CF
:1056700020F002002060A769D4F81C80207800F098
:10568000080048B31B48D0E90630D4E90C12591A77
:1056900090410DD31748D0E90620D4E90C31D51A32
:1056A00060EB01061348006AA16AA0EB010916E04D
:1056B0004FF0FF31D4E90C3CCA1A61EB0C000D49E4
:1056C000D1E90631D51840EB01060A48006AA16A03
:1056D000401AA0F1010902E000252E46A9460098D3
:1056E000FAF72EFD2A46334649464046B847A9E711
:1056F0001C0000200006002030B587B004460D468F
:10570000012144F20400FDF7F5FB234800F0F0F915
:105710004FF40070ADF8180003208DF81A0018201F
:105720008DF81B0006A91D48FBF736FF4FF480607B
:10573000ADF8180004208DF81B0006A91748FBF7E8
:105740002BFF25208DF8040003208DF805008DF82F
:10575000060001208DF8070001A8FCF7E9F8029483
:105760000020ADF80C00ADF80E00ADF81000ADF85B
:1057700014000C20ADF8120002A9074800F056FAF8
:10578000012240F22551044800F02AFA0121024882
:1057900000F098F907B030BD003801400008014022
:1057A0003EB502A8002101230A46CDE900100DA153
:1057B0001048FFF789FB044600BF012C05D0C62323
:1057C0000D4A0EA112A0FCF793F900BF00BF02988A
:1057D00028B1C723084A09A10DA0FCF789F900BF29
:1057E0003EBD000075617274312073656D61706833
:1057F0006F726500441900209F7B00082E2E5C2EDE
:105800002E5C6273705C4253505F556172742E63FC
:105810000000000000B58BB001210846FDF73AFBFF
:105820001648009016480190002002904FF4007036
:10583000039000200490802005900020069007909F
:1058400020200890C001099000200A9069460D4868
:10585000FBF7C7FDFBF792FF012206210948FBF782
:10586000B7FD01210748FBF7EBFC0122402103486B
:10587000001F00F033F90BB000BD000004480040E9
:10588000AC1600203000024030B585B004460D460D
:1058900001210820FDF72EFB01218804FDF70AFBFA
:1058A0004FF48060ADF8100018208DF8130003202D
:1058B0008DF8120004A91248FBF76EFE4FF4006049
:1058C000ADF8100004208DF8130004A90C48FBF774
:1058D00063FE00940020ADF80400ADF80600ADF8BA
:1058E0000800ADF80C000C20ADF80A006946054828
:1058F00000F09CF90121034800F0E4F805B030BD48
:10590000000C0140004800401CB50024002001901C
:1059100040F225515A4800F039F9002870D0584813
:1059200000F0F0F95749584A1278885456480078E0
:10593000312802DD00205449087053480078401C8B
:10594000514908705148007830B1012815D002281B
:1059500026D003287ED146E000204D4908704948F2
:105960000078FF2805D149480078401C4749087055
:1059700002E000204449087080E00020444908709B
:1059800040484078012805D140480078401C3F49F4
:10599000087004E000203C4908703C4908706DE044
:1059A00000203B4908703848007804281AD135484F
:1059B0008078384908703348C078097841EA002077
:1059C000C01D3549087008460078312805DD0020E3
:1059D0002D4908702D49087004E02C480078401CBF
:1059E0002A4908704AE000202949087026480078B2
:1059F0002949097888423FD10020284908700DE0E4
:105A00003DE0204825490978405C2549234A127821
:105A1000885422480078401C204908701F480078AC
:105A20001D4909788842ECDB0020174908701A49A3
:105A300008701649087001A800221346114600900C
:105A40001848FFF76DFC044600BF012C08D04FF446
:105A50008D7300E011E0144A14A119A0FCF748F876
:105A600000BF00BF019830B140F21B130E4A0FA1D6
:105A700013A0FCF73DF800BF00E000BF00BF1CBD55
:105A800000380140DE18002082010020850100203E
:105A90008701002088010020840100208901002066
:105AA0001019002044190020B37B00082E2E5C2E14
:105AB0002E5C6273705C4253505F556172742E634A
:105AC0000000000021B1828942F40052828104E08A
:105AD00082894DF6FF731A40828170471AB1838A1A
